{
    "_format": "hh-sol-artifact-1",
    "contractName": "Museum",
    "sourceName": "contracts/Museum.sol",
    "abi": [
        {
            "anonymous": false,
            "inputs": [
                {
                    "indexed": false,
                    "internalType": "address",
                    "name": "acc1",
                    "type": "address"
                },
                {
                    "indexed": false,
                    "internalType": "address",
                    "name": "acc2",
                    "type": "address"
                },
                {
                    "indexed": false,
                    "internalType": "uint256",
                    "name": "amt",
                    "type": "uint256"
                }
            ],
            "name": "Donate",
            "type": "event"
        },
        {
            "inputs": [
                {
                    "internalType": "uint256",
                    "name": "",
                    "type": "uint256"
                }
            ],
            "name": "artifacts",
            "outputs": [
                {
                    "internalType": "address",
                    "name": "owner",
                    "type": "address"
                },
                {
                    "internalType": "string",
                    "name": "name",
                    "type": "string"
                },
                {
                    "internalType": "string",
                    "name": "museum",
                    "type": "string"
                },
                {
                    "internalType": "string",
                    "name": "title",
                    "type": "string"
                },
                {
                    "internalType": "string",
                    "name": "description",
                    "type": "string"
                },
                {
                    "internalType": "uint256",
                    "name": "museum_amtCollected",
                    "type": "uint256"
                },
                {
                    "internalType": "uint256",
                    "name": "org_amtCollected",
                    "type": "uint256"
                },
                {
                    "internalType": "string",
                    "name": "image",
                    "type": "string"
                }
            ],
            "stateMutability": "view",
            "type": "function"
        },
        {
            "inputs": [
                {
                    "internalType": "string",
                    "name": "_name",
                    "type": "string"
                },
                {
                    "internalType": "string",
                    "name": "_museum",
                    "type": "string"
                },
                {
                    "internalType": "string",
                    "name": "_title",
                    "type": "string"
                },
                {
                    "internalType": "string",
                    "name": "_description",
                    "type": "string"
                },
                {
                    "internalType": "string",
                    "name": "_image",
                    "type": "string"
                }
            ],
            "name": "createartifact",
            "outputs": [
                {
                    "internalType": "uint256",
                    "name": "",
                    "type": "uint256"
                }
            ],
            "stateMutability": "nonpayable",
            "type": "function"
        },
        {
            "inputs": [],
            "name": "donateToartifact",
            "outputs": [
                {
                    "internalType": "bool",
                    "name": "",
                    "type": "bool"
                }
            ],
            "stateMutability": "payable",
            "type": "function"
        },
        {
            "inputs": [
                {
                    "internalType": "uint256",
                    "name": "_id",
                    "type": "uint256"
                }
            ],
            "name": "getBalance_museum",
            "outputs": [
                {
                    "internalType": "uint256",
                    "name": "",
                    "type": "uint256"
                }
            ],
            "stateMutability": "view",
            "type": "function"
        },
        {
            "inputs": [
                {
                    "internalType": "uint256",
                    "name": "_id",
                    "type": "uint256"
                }
            ],
            "name": "getBalance_org",
            "outputs": [
                {
                    "internalType": "uint256",
                    "name": "",
                    "type": "uint256"
                }
            ],
            "stateMutability": "view",
            "type": "function"
        },
        {
            "inputs": [
                {
                    "internalType": "uint256",
                    "name": "_id",
                    "type": "uint256"
                }
            ],
            "name": "getDonators",
            "outputs": [
                {
                    "internalType": "address[]",
                    "name": "",
                    "type": "address[]"
                },
                {
                    "internalType": "uint256[]",
                    "name": "",
                    "type": "uint256[]"
                }
            ],
            "stateMutability": "view",
            "type": "function"
        },
        {
            "inputs": [],
            "name": "getartifacts",
            "outputs": [
                {
                    "components": [
                        {
                            "internalType": "address",
                            "name": "owner",
                            "type": "address"
                        },
                        {
                            "internalType": "string",
                            "name": "name",
                            "type": "string"
                        },
                        {
                            "internalType": "string",
                            "name": "museum",
                            "type": "string"
                        },
                        {
                            "internalType": "string",
                            "name": "title",
                            "type": "string"
                        },
                        {
                            "internalType": "string",
                            "name": "description",
                            "type": "string"
                        },
                        {
                            "internalType": "uint256",
                            "name": "museum_amtCollected",
                            "type": "uint256"
                        },
                        {
                            "internalType": "uint256",
                            "name": "org_amtCollected",
                            "type": "uint256"
                        },
                        {
                            "internalType": "string",
                            "name": "image",
                            "type": "string"
                        },
                        {
                            "internalType": "address[]",
                            "name": "donators",
                            "type": "address[]"
                        },
                        {
                            "internalType": "uint256[]",
                            "name": "donations",
                            "type": "uint256[]"
                        }
                    ],
                    "internalType": "struct Museum.Artifact[]",
                    "name": "",
                    "type": "tuple[]"
                }
            ],
            "stateMutability": "view",
            "type": "function"
        },
        {
            "inputs": [],
            "name": "museum_addr",
            "outputs": [
                {
                    "internalType": "address",
                    "name": "",
                    "type": "address"
                }
            ],
            "stateMutability": "view",
            "type": "function"
        },
        {
            "inputs": [],
            "name": "numberOfartifacts",
            "outputs": [
                {
                    "internalType": "uint256",
                    "name": "",
                    "type": "uint256"
                }
            ],
            "stateMutability": "view",
            "type": "function"
        },
        {
            "inputs": [],
            "name": "organzation",
            "outputs": [
                {
                    "internalType": "address",
                    "name": "",
                    "type": "address"
                }
            ],
            "stateMutability": "view",
            "type": "function"
        }
    ],
    "bytecode": "0x6080604052600060015534801561001557600080fd5b5061118a806100256000396000f3fe6080604052600436106100555760003560e01c80630fa91fa91461005a578063425df53a1461009157806357f219b7146100a65780637565daff146100d9578063a160d5d7146100fd578063f8f434de1461011f575b600080fd5b34801561006657600080fd5b5061007a610075366004610bf7565b61013f565b604051610088929190610c10565b60405180910390f35b6100a461009f366004610bf7565b61020e565b005b3480156100b257600080fd5b506100c66100c1366004610bf7565b6102e4565b6040516100889796959493929190610ce1565b3480156100e557600080fd5b506100ef60015481565b604051908152602001610088565b34801561010957600080fd5b506101126105d1565b6040516100889190610ddb565b34801561012b57600080fd5b506100ef61013a366004610fc8565b610a8e565b600081815260208181526040918290206007810180548451818502810185019095528085526060948594929360080192909184918301828280156101ac57602002820191906000526020600020905b81546001600160a01b0316815260019091019060200180831161018e575b50505050509150808054806020026020016040519081016040528092919081815260200182805480156101fe57602002820191906000526020600020905b8154815260200190600101908083116101ea575b5050505050905091509150915091565b6000818152602081905260409020600881015434919060031161023057600080fd5b600781018054600180820183556000928352602080842090920180546001600160a01b03191633179055600884018054918201815583529082200183905581546040516001600160a01b039091169084908381818185875af1925050503d80600081146102b9576040519150601f19603f3d011682016040523d82523d6000602084013e6102be565b606091505b5050905080156102de578282600501546102d891906110bf565b60058301555b50505050565b600060208190529081526040902080546001820180546001600160a01b039092169291610310906110d7565b80601f016020809104026020016040519081016040528092919081815260200182805461033c906110d7565b80156103895780601f1061035e57610100808354040283529160200191610389565b820191906000526020600020905b81548152906001019060200180831161036c57829003601f168201915b50505050509080600201805461039e906110d7565b80601f01602080910402602001604051908101604052809291908181526020018280546103ca906110d7565b80156104175780601f106103ec57610100808354040283529160200191610417565b820191906000526020600020905b8154815290600101906020018083116103fa57829003601f168201915b50505050509080600301805461042c906110d7565b80601f0160208091040260200160405190810160405280929190818152602001828054610458906110d7565b80156104a55780601f1061047a576101008083540402835291602001916104a5565b820191906000526020600020905b81548152906001019060200180831161048857829003601f168201915b5050505050908060040180546104ba906110d7565b80601f01602080910402602001604051908101604052809291908181526020018280546104e6906110d7565b80156105335780601f1061050857610100808354040283529160200191610533565b820191906000526020600020905b81548152906001019060200180831161051657829003601f168201915b50505050509080600501549080600601805461054e906110d7565b80601f016020809104026020016040519081016040528092919081815260200182805461057a906110d7565b80156105c75780601f1061059c576101008083540402835291602001916105c7565b820191906000526020600020905b8154815290600101906020018083116105aa57829003601f168201915b5050505050905087565b6060600060015467ffffffffffffffff8111156105f0576105f0610f25565b60405190808252806020026020018201604052801561067957816020015b61066660405180610120016040528060006001600160a01b0316815260200160608152602001606081526020016060815260200160608152602001600081526020016060815260200160608152602001606081525090565b81526020019060019003908161060e5790505b50905060005b600154811015610a8857600081815260208181526040918290208251610120810190935280546001600160a01b03168352600181018054919392849290840191906106c9906110d7565b80601f01602080910402602001604051908101604052809291908181526020018280546106f5906110d7565b80156107425780601f1061071757610100808354040283529160200191610742565b820191906000526020600020905b81548152906001019060200180831161072557829003601f168201915b5050505050815260200160028201805461075b906110d7565b80601f0160208091040260200160405190810160405280929190818152602001828054610787906110d7565b80156107d45780601f106107a9576101008083540402835291602001916107d4565b820191906000526020600020905b8154815290600101906020018083116107b757829003601f168201915b505050505081526020016003820180546107ed906110d7565b80601f0160208091040260200160405190810160405280929190818152602001828054610819906110d7565b80156108665780601f1061083b57610100808354040283529160200191610866565b820191906000526020600020905b81548152906001019060200180831161084957829003601f168201915b5050505050815260200160048201805461087f906110d7565b80601f01602080910402602001604051908101604052809291908181526020018280546108ab906110d7565b80156108f85780601f106108cd576101008083540402835291602001916108f8565b820191906000526020600020905b8154815290600101906020018083116108db57829003601f168201915b505050505081526020016005820154815260200160068201805461091b906110d7565b80601f0160208091040260200160405190810160405280929190818152602001828054610947906110d7565b80156109945780601f1061096957610100808354040283529160200191610994565b820191906000526020600020905b81548152906001019060200180831161097757829003601f168201915b50505050508152602001600782018054806020026020016040519081016040528092919081815260200182805480156109f657602002820191906000526020600020905b81546001600160a01b031681526001909101906020018083116109d8575b5050505050815260200160088201805480602002602001604051908101604052809291908181526020018280548015610a4e57602002820191906000526020600020905b815481526020019060010190808311610a3a575b505050505081525050838381518110610a6957610a6961110c565b6020026020010181905250508080610a8090611122565b91505061067f565b50919050565b60018054600090815260208181526040822080546001600160a01b0319166001600160a01b038b16178155885192939092610acf92918401918a0190610b5e565b508451610ae59060038301906020880190610b5e565b508351610afb9060048301906020870190610b5e565b508551610b119060028301906020890190610b5e565b50600060058201558251610b2e9060068301906020860190610b5e565b5060018054906000610b3f83611122565b919050555060018054610b52919061113d565b98975050505050505050565b828054610b6a906110d7565b90600052602060002090601f016020900481019282610b8c5760008555610bd2565b82601f10610ba557805160ff1916838001178555610bd2565b82800160010185558215610bd2579182015b82811115610bd2578251825591602001919060010190610bb7565b50610bde929150610be2565b5090565b5b80821115610bde5760008155600101610be3565b600060208284031215610c0957600080fd5b5035919050565b604080825283519082018190526000906020906060840190828701845b82811015610c525781516001600160a01b031684529284019290840190600101610c2d565b5050508381038285015284518082528583019183019060005b81811015610c8757835183529284019291840191600101610c6b565b5090979650505050505050565b6000815180845260005b81811015610cba57602081850181015186830182015201610c9e565b81811115610ccc576000602083870101525b50601f01601f19169290920160200192915050565b6001600160a01b038816815260e060208201819052600090610d0590830189610c94565b8281036040840152610d178189610c94565b90508281036060840152610d2b8188610c94565b90508281036080840152610d3f8187610c94565b90508460a084015282810360c0840152610d598185610c94565b9a9950505050505050505050565b600081518084526020808501945080840160005b83811015610da05781516001600160a01b031687529582019590820190600101610d7b565b509495945050505050565b600081518084526020808501945080840160005b83811015610da057815187529582019590820190600101610dbf565b60006020808301818452808551808352604092508286019150828160051b87010184880160005b83811015610efb57888303603f19018552815180516001600160a01b0316845261012088820151818a870152610e3a82870182610c94565b9150508782015185820389870152610e528282610c94565b91505060608083015186830382880152610e6c8382610c94565b9250505060808083015186830382880152610e878382610c94565b9250505060a080830151818701525060c08083015186830382880152610ead8382610c94565b9250505060e08083015186830382880152610ec88382610d67565b925050506101008083015192508582038187015250610ee78183610dab565b968901969450505090860190600101610e02565b509098975050505050505050565b80356001600160a01b0381168114610f2057600080fd5b919050565b634e487b7160e01b600052604160045260246000fd5b600082601f830112610f4c57600080fd5b813567ffffffffffffffff80821115610f6757610f67610f25565b604051601f8301601f19908116603f01168101908282118183101715610f8f57610f8f610f25565b81604052838152866020858801011115610fa857600080fd5b836020870160208301376000602085830101528094505050505092915050565b60008060008060008060c08789031215610fe157600080fd5b610fea87610f09565b9550602087013567ffffffffffffffff8082111561100757600080fd5b6110138a838b01610f3b565b9650604089013591508082111561102957600080fd5b6110358a838b01610f3b565b9550606089013591508082111561104b57600080fd5b6110578a838b01610f3b565b9450608089013591508082111561106d57600080fd5b6110798a838b01610f3b565b935060a089013591508082111561108f57600080fd5b5061109c89828a01610f3b565b9150509295509295509295565b634e487b7160e01b600052601160045260246000fd5b600082198211156110d2576110d26110a9565b500190565b600181811c908216806110eb57607f821691505b60208210811415610a8857634e487b7160e01b600052602260045260246000fd5b634e487b7160e01b600052603260045260246000fd5b6000600019821415611136576111366110a9565b5060010190565b60008282101561114f5761114f6110a9565b50039056fea26469706673582212200cda184774a574e1dffffd0af48419982bdb06d3b9699f276068d00262aa71c764736f6c63430008090033",
    "linkReferences": {},
    "deployedLinkReferences": {}
}